{
  "address": "0x436F1e3538e8B3cAf869696eBF3EfbD200608696",
  "abi": [
    {
      "inputs": [
        {
          "internalType": "address",
          "name": "tokenAddr",
          "type": "address"
        }
      ],
      "stateMutability": "nonpayable",
      "type": "constructor"
    },
    {
      "anonymous": false,
      "inputs": [
        {
          "indexed": false,
          "internalType": "address",
          "name": "swapper",
          "type": "address"
        },
        {
          "indexed": false,
          "internalType": "uint256",
          "name": "tokenOutput",
          "type": "uint256"
        },
        {
          "indexed": false,
          "internalType": "uint256",
          "name": "ethInput",
          "type": "uint256"
        }
      ],
      "name": "EthToTokenSwap",
      "type": "event"
    },
    {
      "anonymous": false,
      "inputs": [
        {
          "indexed": false,
          "internalType": "address",
          "name": "liquidityProvider",
          "type": "address"
        },
        {
          "indexed": false,
          "internalType": "uint256",
          "name": "liquidityMinted",
          "type": "uint256"
        },
        {
          "indexed": false,
          "internalType": "uint256",
          "name": "ethInput",
          "type": "uint256"
        },
        {
          "indexed": false,
          "internalType": "uint256",
          "name": "tokensInput",
          "type": "uint256"
        }
      ],
      "name": "LiquidityProvided",
      "type": "event"
    },
    {
      "anonymous": false,
      "inputs": [
        {
          "indexed": false,
          "internalType": "address",
          "name": "liquidityRemover",
          "type": "address"
        },
        {
          "indexed": false,
          "internalType": "uint256",
          "name": "liquidityWithdrawn",
          "type": "uint256"
        },
        {
          "indexed": false,
          "internalType": "uint256",
          "name": "tokensOutput",
          "type": "uint256"
        },
        {
          "indexed": false,
          "internalType": "uint256",
          "name": "ethOutput",
          "type": "uint256"
        }
      ],
      "name": "LiquidityRemoved",
      "type": "event"
    },
    {
      "anonymous": false,
      "inputs": [
        {
          "indexed": false,
          "internalType": "address",
          "name": "swapper",
          "type": "address"
        },
        {
          "indexed": false,
          "internalType": "uint256",
          "name": "tokensInput",
          "type": "uint256"
        },
        {
          "indexed": false,
          "internalType": "uint256",
          "name": "ethOutput",
          "type": "uint256"
        }
      ],
      "name": "TokenToEthSwap",
      "type": "event"
    },
    {
      "inputs": [],
      "name": "deposit",
      "outputs": [
        {
          "internalType": "uint256",
          "name": "tokensDeposited",
          "type": "uint256"
        }
      ],
      "stateMutability": "payable",
      "type": "function"
    },
    {
      "inputs": [],
      "name": "ethToToken",
      "outputs": [
        {
          "internalType": "uint256",
          "name": "tokenOutput",
          "type": "uint256"
        }
      ],
      "stateMutability": "payable",
      "type": "function"
    },
    {
      "inputs": [
        {
          "internalType": "address",
          "name": "lp",
          "type": "address"
        }
      ],
      "name": "getLiquidity",
      "outputs": [
        {
          "internalType": "uint256",
          "name": "",
          "type": "uint256"
        }
      ],
      "stateMutability": "view",
      "type": "function"
    },
    {
      "inputs": [
        {
          "internalType": "uint256",
          "name": "tokens",
          "type": "uint256"
        }
      ],
      "name": "init",
      "outputs": [
        {
          "internalType": "uint256",
          "name": "",
          "type": "uint256"
        }
      ],
      "stateMutability": "payable",
      "type": "function"
    },
    {
      "inputs": [
        {
          "internalType": "address",
          "name": "",
          "type": "address"
        }
      ],
      "name": "liquidity",
      "outputs": [
        {
          "internalType": "uint256",
          "name": "",
          "type": "uint256"
        }
      ],
      "stateMutability": "view",
      "type": "function"
    },
    {
      "inputs": [
        {
          "internalType": "uint256",
          "name": "xInput",
          "type": "uint256"
        },
        {
          "internalType": "uint256",
          "name": "xReserves",
          "type": "uint256"
        },
        {
          "internalType": "uint256",
          "name": "yReserves",
          "type": "uint256"
        }
      ],
      "name": "price",
      "outputs": [
        {
          "internalType": "uint256",
          "name": "yOutput",
          "type": "uint256"
        }
      ],
      "stateMutability": "pure",
      "type": "function"
    },
    {
      "inputs": [
        {
          "internalType": "uint256",
          "name": "tokenInput",
          "type": "uint256"
        }
      ],
      "name": "tokenToEth",
      "outputs": [
        {
          "internalType": "uint256",
          "name": "ethOutput",
          "type": "uint256"
        }
      ],
      "stateMutability": "nonpayable",
      "type": "function"
    },
    {
      "inputs": [],
      "name": "totalLiquidity",
      "outputs": [
        {
          "internalType": "uint256",
          "name": "",
          "type": "uint256"
        }
      ],
      "stateMutability": "view",
      "type": "function"
    },
    {
      "inputs": [
        {
          "internalType": "uint256",
          "name": "amount",
          "type": "uint256"
        }
      ],
      "name": "withdraw",
      "outputs": [
        {
          "internalType": "uint256",
          "name": "ethAmount",
          "type": "uint256"
        },
        {
          "internalType": "uint256",
          "name": "tokenAmount",
          "type": "uint256"
        }
      ],
      "stateMutability": "nonpayable",
      "type": "function"
    }
  ],
  "transactionHash": "0xda4401d83ce024ea1622d1ff7f9fcec180edd60f065d998331005f1a3ef06de8",
  "args": [
    "0xaC2b1179DC5CCEd67c7C5560A2190d5e717B6Ab4"
  ],
  "numDeployments": 1,
  "solcInputHash": "c1ba6e0e071a51dcf874020a5b7ee911",
  "bytecode": "0x608060405234801561001057600080fd5b50604051610ecb380380610ecb83398101604081905261002f91610054565b600080546001600160a01b0319166001600160a01b0392909216919091179055610084565b60006020828403121561006657600080fd5b81516001600160a01b038116811461007d57600080fd5b9392505050565b610e38806100936000396000f3fe6080604052600436106100865760003560e01c8063789770f411610059578063789770f414610129578063a747b93b14610131578063b7b0422d14610167578063b8c876b11461017a578063d0e30db0146101a757600080fd5b806315770f921461008b5780632071a9f4146100b45780632e1a7d4d146100d457806370b2a30f14610109575b600080fd5b34801561009757600080fd5b506100a160015481565b6040519081526020015b60405180910390f35b3480156100c057600080fd5b506100a16100cf366004610cd7565b6101af565b3480156100e057600080fd5b506100f46100ef366004610d03565b6101fe565b604080519283526020830191909152016100ab565b34801561011557600080fd5b506100a1610124366004610d03565b610506565b6100a1610786565b34801561013d57600080fd5b506100a161014c366004610d1c565b6001600160a01b031660009081526002602052604090205490565b6100a1610175366004610d03565b61095c565b34801561018657600080fd5b506100a1610195366004610d1c565b60026020526000908152604090205481565b6100a1610a8f565b6000806101be856103e5610d62565b905060006101cc8483610d62565b90506000826101dd876103e8610d62565b6101e79190610d7f565b90506101f38183610d92565b979650505050505050565b33600090815260026020526040812054819083111561026f5760405162461bcd60e51b815260206004820152602260248201527f776974686472617728293a20696e73756666696369656e74206c697175696469604482015261747960f01b60648201526084015b60405180910390fd5b600080546040516370a0823160e01b81523060048201524792916001600160a01b0316906370a0823190602401602060405180830381865afa1580156102b9573d6000803e3d6000fd5b505050506040513d601f19601f820116820180604052508101906102dd9190610db4565b6001549091506102ed8387610d62565b6102f79190610d92565b6001549094506103078287610d62565b6103119190610d92565b33600090815260026020526040812080549295508792909190610335908490610dcd565b92505081905550846001600082825461034e9190610dcd565b9091555050604051600090339086908381818185875af1925050503d8060008114610395576040519150601f19603f3d011682016040523d82523d6000602084013e61039a565b606091505b50509050806103eb5760405162461bcd60e51b815260206004820152601f60248201527f776974686472617728293a20455448207472616e73666572206661696c6564006044820152606401610266565b60005460405163a9059cbb60e01b8152336004820152602481018690526001600160a01b039091169063a9059cbb906044016020604051808303816000875af115801561043c573d6000803e3d6000fd5b505050506040513d601f19601f820116820180604052508101906104609190610de0565b6104b65760405162461bcd60e51b815260206004820152602160248201527f776974686472617728293a20746f6b656e207472616e73666572206661696c656044820152601960fa1b6064820152608401610266565b6040805133815260208101889052908101859052606081018690527f1dc8bb69df2b8e91fbdcbfcf93d951b3f0000f085a95fe3f7946d6161439245d9060800160405180910390a1505050915091565b600080821161054e5760405162461bcd60e51b815260206004820152601460248201527363616e6e6f742073776170203020746f6b656e7360601b6044820152606401610266565b600080546040516370a0823160e01b81523060048201526001600160a01b03909116906370a0823190602401602060405180830381865afa158015610597573d6000803e3d6000fd5b505050506040513d601f19601f820116820180604052508101906105bb9190610db4565b9050476105c98483836101af565b6000546040516323b872dd60e01b8152336004820152306024820152604481018790529194506001600160a01b0316906323b872dd906064016020604051808303816000875af1158015610621573d6000803e3d6000fd5b505050506040513d601f19601f820116820180604052508101906106459190610de0565b61069b5760405162461bcd60e51b815260206004820152602160248201527f746f6b656e546f45746828293a207472616e7366657246726f6d206661696c656044820152601960fa1b6064820152608401610266565b604051600090339085908381818185875af1925050503d80600081146106dd576040519150601f19603f3d011682016040523d82523d6000602084013e6106e2565b606091505b505090508061073d5760405162461bcd60e51b815260206004820152602160248201527f746f6b656e546f45746828293a20455448207472616e73666572206661696c656044820152601960fa1b6064820152608401610266565b60408051338152602081018790529081018590527f472303b1e7ca7d00fb77f255c0a8c577f9ca4264c0306aaed3ff18e831523a6d9060600160405180910390a1505050919050565b60008034116107cb5760405162461bcd60e51b81526020600482015260116024820152700c6c2dcdcdee840e6eec2e04060408aa89607b1b6044820152606401610266565b60006107d73447610dcd565b600080546040516370a0823160e01b815230600482015292935090916001600160a01b03909116906370a0823190602401602060405180830381865afa158015610825573d6000803e3d6000fd5b505050506040513d601f19601f820116820180604052508101906108499190610db4565b90506108563483836101af565b60005460405163a9059cbb60e01b8152336004820152602481018390529194506001600160a01b03169063a9059cbb906044016020604051808303816000875af11580156108a8573d6000803e3d6000fd5b505050506040513d601f19601f820116820180604052508101906108cc9190610de0565b6109185760405162461bcd60e51b815260206004820152601d60248201527f657468546f546f6b656e28293a207472616e73666572206661696c65640000006044820152606401610266565b6040805133815260208101859052348183015290517f6d4870e9281c01ea54a4420c8684ac713b77f0c590b40c4b1fbf4c6ba892ccea9181900360600190a1505090565b60006001546000146109b05760405162461bcd60e51b815260206004820152601860248201527f4445583a20616c726561647920696e697469616c697a656400000000000000006044820152606401610266565b47600181905533600081815260026020526040808220939093555491516323b872dd60e01b81526004810191909152306024820152604481018490526001600160a01b03909116906323b872dd906064016020604051808303816000875af1158015610a20573d6000803e3d6000fd5b505050506040513d601f19601f82011682018060405250810190610a449190610de0565b610a875760405162461bcd60e51b81526020600482015260146024820152731111560e881d1c985b9cd9995c8819985a5b195960621b6044820152606401610266565b505060015490565b6000803411610ad05760405162461bcd60e51b815260206004820152600d60248201526c09aeae6e840e6cadcc8408aa89609b1b6044820152606401610266565b6000610adc3447610dcd565b600080546040516370a0823160e01b815230600482015292935090916001600160a01b03909116906370a0823190602401602060405180830381865afa158015610b2a573d6000803e3d6000fd5b505050506040513d601f19601f82011682018060405250810190610b4e9190610db4565b905081610b5b8234610d62565b610b659190610d92565b925060008260015434610b789190610d62565b610b829190610d92565b33600090815260026020526040812080549293508392909190610ba6908490610d7f565b925050819055508060016000828254610bbf9190610d7f565b90915550506000546040516323b872dd60e01b8152336004820152306024820152604481018690526001600160a01b03909116906323b872dd906064016020604051808303816000875af1158015610c1b573d6000803e3d6000fd5b505050506040513d601f19601f82011682018060405250810190610c3f9190610de0565b610c8b5760405162461bcd60e51b815260206004820152601e60248201527f6465706f73697428293a207472616e7366657246726f6d206661696c656400006044820152606401610266565b604080513381526020810183905234818301526060810186905290517f3bca7014f4c0ccc8016338c79f4c00e82068dbadaf4f01ca5449040fdd39f5009181900360800190a150505090565b600080600060608486031215610cec57600080fd5b505081359360208301359350604090920135919050565b600060208284031215610d1557600080fd5b5035919050565b600060208284031215610d2e57600080fd5b81356001600160a01b0381168114610d4557600080fd5b9392505050565b634e487b7160e01b600052601160045260246000fd5b8082028115828204841417610d7957610d79610d4c565b92915050565b80820180821115610d7957610d79610d4c565b600082610daf57634e487b7160e01b600052601260045260246000fd5b500490565b600060208284031215610dc657600080fd5b5051919050565b81810381811115610d7957610d79610d4c565b600060208284031215610df257600080fd5b81518015158114610d4557600080fdfea26469706673582212205cf65260de21b7fc709131baf0a17ac100ed7562163284cdaddfa1320a0c7e1364736f6c63430008140033",
  "devdoc": {
    "kind": "dev",
    "methods": {
      "init(uint256)": {
        "params": {
          "tokens": "amount to be transferred to DEX"
        },
        "returns": {
          "_0": "totalLiquidity is the number of LPTs minting as a result of deposits made to DEX contract NOTE: since ratio is 1:1, this is fine to initialize the totalLiquidity (wrt to balloons) as equal to eth balance of contract."
        }
      },
      "price(uint256,uint256,uint256)": {
        "details": "Follow along with the [original tutorial](https://medium.com/@austin_48503/%EF%B8%8F-minimum-viable-exchange-d84f30bd0c90) Price section for an understanding of the DEX's pricing model and for a price function to add to your contract. You may need to update the Solidity syntax (e.g. use + instead of .add, * instead of .mul, etc). Deploy when you are done."
      }
    },
    "version": 1
  },
  "userdoc": {
    "events": {
      "EthToTokenSwap(address,uint256,uint256)": {
        "notice": "Emitted when ethToToken() swap transacted"
      },
      "LiquidityProvided(address,uint256,uint256,uint256)": {
        "notice": "Emitted when liquidity provided to DEX and mints LPTs."
      },
      "LiquidityRemoved(address,uint256,uint256,uint256)": {
        "notice": "Emitted when liquidity removed from DEX and decreases LPT count within DEX."
      },
      "TokenToEthSwap(address,uint256,uint256)": {
        "notice": "Emitted when tokenToEth() swap transacted"
      }
    },
    "kind": "user",
    "methods": {
      "deposit()": {
        "notice": "allows deposits of $BAL and $ETH to liquidity pool NOTE: parameter is the msg.value sent with this function call. That amount is used to determine the amount of $BAL needed as well and taken from the depositor. NOTE: user has to make sure to give DEX approval to spend their tokens on their behalf by calling approve function prior to this function call. NOTE: Equal parts of both assets will be removed from the user's wallet with respect to the price outlined by the AMM."
      },
      "ethToToken()": {
        "notice": "sends Ether to DEX in exchange for $BAL"
      },
      "getLiquidity(address)": {
        "notice": "returns liquidity for a user. NOTE: this is not needed typically due to the `liquidity()` mapping variable being public and having a getter as a result. This is left though as it is used within the front end code (App.jsx). NOTE: if you are using a mapping liquidity, then you can use `return liquidity[lp]` to get the liquidity for a user. NOTE: if you will be submitting the challenge make sure to implement this function as it is used in the tests."
      },
      "init(uint256)": {
        "notice": "initializes amount of tokens that will be transferred to the DEX itself from the erc20 contract mintee (and only them based on how Balloons.sol is written). Loads contract up with both ETH and Balloons."
      },
      "price(uint256,uint256,uint256)": {
        "notice": "returns yOutput, or yDelta for xInput (or xDelta)"
      },
      "tokenToEth(uint256)": {
        "notice": "sends $BAL tokens to DEX in exchange for Ether"
      },
      "withdraw(uint256)": {
        "notice": "allows withdrawal of $BAL and $ETH from liquidity pool NOTE: with this current code, the msg caller could end up getting very little back if the liquidity is super low in the pool. I guess they could see that with the UI."
      }
    },
    "version": 1
  },
  "storageLayout": {
    "storage": [
      {
        "astId": 83,
        "contract": "contracts/DEX.sol:DEX",
        "label": "token",
        "offset": 0,
        "slot": "0",
        "type": "t_contract(IERC20)77"
      },
      {
        "astId": 85,
        "contract": "contracts/DEX.sol:DEX",
        "label": "totalLiquidity",
        "offset": 0,
        "slot": "1",
        "type": "t_uint256"
      },
      {
        "astId": 89,
        "contract": "contracts/DEX.sol:DEX",
        "label": "liquidity",
        "offset": 0,
        "slot": "2",
        "type": "t_mapping(t_address,t_uint256)"
      }
    ],
    "types": {
      "t_address": {
        "encoding": "inplace",
        "label": "address",
        "numberOfBytes": "20"
      },
      "t_contract(IERC20)77": {
        "encoding": "inplace",
        "label": "contract IERC20",
        "numberOfBytes": "20"
      },
      "t_mapping(t_address,t_uint256)": {
        "encoding": "mapping",
        "key": "t_address",
        "label": "mapping(address => uint256)",
        "numberOfBytes": "32",
        "value": "t_uint256"
      },
      "t_uint256": {
        "encoding": "inplace",
        "label": "uint256",
        "numberOfBytes": "32"
      }
    }
  }
}