{
  "address": "0x3548F4dCc26Bd42D399ef77108448514099a0225",
  "abi": [
    {
      "inputs": [
        {
          "internalType": "address",
          "name": "_fundingRecipient",
          "type": "address"
        }
      ],
      "stateMutability": "nonpayable",
      "type": "constructor"
    },
    {
      "inputs": [],
      "name": "AlreadyCompleted",
      "type": "error"
    },
    {
      "inputs": [],
      "name": "NotOpenToWithdraw",
      "type": "error"
    },
    {
      "inputs": [
        {
          "internalType": "uint256",
          "name": "deadline",
          "type": "uint256"
        },
        {
          "internalType": "uint256",
          "name": "currentTimestamp",
          "type": "uint256"
        }
      ],
      "name": "TooEarly",
      "type": "error"
    },
    {
      "inputs": [
        {
          "internalType": "address",
          "name": "to",
          "type": "address"
        },
        {
          "internalType": "uint256",
          "name": "amount",
          "type": "uint256"
        }
      ],
      "name": "WithdrawTransferFailed",
      "type": "error"
    },
    {
      "anonymous": false,
      "inputs": [
        {
          "indexed": false,
          "internalType": "address",
          "name": "",
          "type": "address"
        },
        {
          "indexed": false,
          "internalType": "uint256",
          "name": "",
          "type": "uint256"
        }
      ],
      "name": "Contribution",
      "type": "event"
    },
    {
      "inputs": [
        {
          "internalType": "address",
          "name": "",
          "type": "address"
        }
      ],
      "name": "balances",
      "outputs": [
        {
          "internalType": "uint256",
          "name": "",
          "type": "uint256"
        }
      ],
      "stateMutability": "view",
      "type": "function"
    },
    {
      "inputs": [],
      "name": "contribute",
      "outputs": [],
      "stateMutability": "payable",
      "type": "function"
    },
    {
      "inputs": [],
      "name": "deadline",
      "outputs": [
        {
          "internalType": "uint256",
          "name": "",
          "type": "uint256"
        }
      ],
      "stateMutability": "view",
      "type": "function"
    },
    {
      "inputs": [],
      "name": "execute",
      "outputs": [],
      "stateMutability": "nonpayable",
      "type": "function"
    },
    {
      "inputs": [],
      "name": "fundingRecipient",
      "outputs": [
        {
          "internalType": "contract IFundingRecipient",
          "name": "",
          "type": "address"
        }
      ],
      "stateMutability": "view",
      "type": "function"
    },
    {
      "inputs": [],
      "name": "openToWithdraw",
      "outputs": [
        {
          "internalType": "bool",
          "name": "",
          "type": "bool"
        }
      ],
      "stateMutability": "view",
      "type": "function"
    },
    {
      "inputs": [],
      "name": "threshold",
      "outputs": [
        {
          "internalType": "uint256",
          "name": "",
          "type": "uint256"
        }
      ],
      "stateMutability": "view",
      "type": "function"
    },
    {
      "inputs": [],
      "name": "timeLeft",
      "outputs": [
        {
          "internalType": "uint256",
          "name": "",
          "type": "uint256"
        }
      ],
      "stateMutability": "view",
      "type": "function"
    },
    {
      "inputs": [],
      "name": "withdraw",
      "outputs": [],
      "stateMutability": "nonpayable",
      "type": "function"
    },
    {
      "stateMutability": "payable",
      "type": "receive"
    }
  ],
  "transactionHash": "0x56f57eccfebb1838565fb02475c0da28944b9a730658fb14019f1f79465900b6",
  "args": [
    "0x0De3eF8D887bceb3ca040C8eD822B0B786B8dE3F"
  ],
  "numDeployments": 2,
  "solcInputHash": "4fe15904e68374f5000cbc319a01c053",
  "bytecode": "0x608060405261000f426045610062565b60015534801561001e57600080fd5b506040516106fd3803806106fd83398101604081905261003d91610089565b600080546001600160a01b0319166001600160a01b03929092169190911790556100b9565b8082018082111561008357634e487b7160e01b600052601160045260246000fd5b92915050565b60006020828403121561009b57600080fd5b81516001600160a01b03811681146100b257600080fd5b9392505050565b610635806100c86000396000f3fe60806040526004361061008a5760003560e01c80633ccfd60b116100595780633ccfd60b1461014157806342cde4e8146101565780636146195414610172578063763418a714610187578063d7bb99ba146101b857600080fd5b80631300a6d11461009e5780631bb534ba146100c657806327e235e3146100fe57806329dcb0cf1461012b57600080fd5b36610099576100976101bc565b005b600080fd5b3480156100aa57600080fd5b506100b36102ad565b6040519081526020015b60405180910390f35b3480156100d257600080fd5b506000546100e6906001600160a01b031681565b6040516001600160a01b0390911681526020016100bd565b34801561010a57600080fd5b506100b361011936600461056b565b60026020526000908152604090205481565b34801561013757600080fd5b506100b360015481565b34801561014d57600080fd5b506100976102d1565b34801561016257600080fd5b506100b3670de0b6b3a764000081565b34801561017e57600080fd5b5061009761041c565b34801561019357600080fd5b506000546101a890600160a01b900460ff1681565b60405190151581526020016100bd565b6100975b60008054906101000a90046001600160a01b03166001600160a01b0316639d9a7fe96040518163ffffffff1660e01b8152600401602060405180830381865afa15801561020d573d6000803e3d6000fd5b505050506040513d601f19601f82011682018060405250810190610231919061059b565b1561024f5760405163195332a560e01b815260040160405180910390fd5b336000908152600260205260408120805434929061026e9084906105d3565b9091555050604080513381523460208201527f4d154d4aae216bed6d0926db77c00df2b57c6b5ba4eee05775de20facede3a7b910160405180910390a1565b600042600154116102be5750600090565b426001546102cc91906105ec565b905090565b60008054906101000a90046001600160a01b03166001600160a01b0316639d9a7fe96040518163ffffffff1660e01b8152600401602060405180830381865afa158015610322573d6000803e3d6000fd5b505050506040513d601f19601f82011682018060405250810190610346919061059b565b156103645760405163195332a560e01b815260040160405180910390fd5b600054600160a01b900460ff1661038e5760405163a6b765a760e01b815260040160405180910390fd5b33600081815260026020526040808220805490839055905190929083908381818185875af1925050503d80600081146103e3576040519150601f19603f3d011682016040523d82523d6000602084013e6103e8565b606091505b50509050806104185760405163dd2c9e2f60e01b8152336004820152602481018390526044015b60405180910390fd5b5050565b60008054906101000a90046001600160a01b03166001600160a01b0316639d9a7fe96040518163ffffffff1660e01b8152600401602060405180830381865afa15801561046d573d6000803e3d6000fd5b505050506040513d601f19601f82011682018060405250810190610491919061059b565b156104af5760405163195332a560e01b815260040160405180910390fd5b60015442116104de5760015460405163e58369d160e01b8152600481019190915242602482015260440161040f565b670de0b6b3a764000047106105565760008054906101000a90046001600160a01b03166001600160a01b031663522e1177476040518263ffffffff1660e01b81526004016000604051808303818588803b15801561053b57600080fd5b505af115801561054f573d6000803e3d6000fd5b5050505050565b6000805460ff60a01b1916600160a01b179055565b60006020828403121561057d57600080fd5b81356001600160a01b038116811461059457600080fd5b9392505050565b6000602082840312156105ad57600080fd5b8151801515811461059457600080fd5b634e487b7160e01b600052601160045260246000fd5b808201808211156105e6576105e66105bd565b92915050565b818103818111156105e6576105e66105bd56fea26469706673582212201c6262567556939fa0f1b4d293d1c1b5644b1c5e133ff10ae3155f9dbebbd6e864736f6c63430008140033",
  "devdoc": {
    "kind": "dev",
    "methods": {},
    "version": 1
  },
  "userdoc": {
    "kind": "user",
    "methods": {},
    "version": 1
  },
  "storageLayout": {
    "storage": [
      {
        "astId": 29,
        "contract": "contracts/CrowdFund.sol:CrowdFund",
        "label": "fundingRecipient",
        "offset": 0,
        "slot": "0",
        "type": "t_contract(IFundingRecipient)10"
      },
      {
        "astId": 31,
        "contract": "contracts/CrowdFund.sol:CrowdFund",
        "label": "openToWithdraw",
        "offset": 20,
        "slot": "0",
        "type": "t_bool"
      },
      {
        "astId": 37,
        "contract": "contracts/CrowdFund.sol:CrowdFund",
        "label": "deadline",
        "offset": 0,
        "slot": "1",
        "type": "t_uint256"
      },
      {
        "astId": 44,
        "contract": "contracts/CrowdFund.sol:CrowdFund",
        "label": "balances",
        "offset": 0,
        "slot": "2",
        "type": "t_mapping(t_address,t_uint256)"
      }
    ],
    "types": {
      "t_address": {
        "encoding": "inplace",
        "label": "address",
        "numberOfBytes": "20"
      },
      "t_bool": {
        "encoding": "inplace",
        "label": "bool",
        "numberOfBytes": "1"
      },
      "t_contract(IFundingRecipient)10": {
        "encoding": "inplace",
        "label": "contract IFundingRecipient",
        "numberOfBytes": "20"
      },
      "t_mapping(t_address,t_uint256)": {
        "encoding": "mapping",
        "key": "t_address",
        "label": "mapping(address => uint256)",
        "numberOfBytes": "32",
        "value": "t_uint256"
      },
      "t_uint256": {
        "encoding": "inplace",
        "label": "uint256",
        "numberOfBytes": "32"
      }
    }
  }
}